{
  "_format": "hh-sol-artifact-1",
  "contractName": "Lottery",
  "sourceName": "contracts/Lottery.sol",
  "abi": [
    {
      "inputs": [],
      "stateMutability": "nonpayable",
      "type": "constructor"
    },
    {
      "anonymous": false,
      "inputs": [
        {
          "indexed": false,
          "internalType": "bool",
          "name": "stat",
          "type": "bool"
        },
        {
          "indexed": false,
          "internalType": "string",
          "name": "message",
          "type": "string"
        }
      ],
      "name": "GameStarted",
      "type": "event"
    },
    {
      "anonymous": false,
      "inputs": [
        {
          "indexed": false,
          "internalType": "string",
          "name": "mmssgg",
          "type": "string"
        },
        {
          "indexed": false,
          "internalType": "uint256",
          "name": "vall",
          "type": "uint256"
        }
      ],
      "name": "LogDummyBid",
      "type": "event"
    },
    {
      "anonymous": false,
      "inputs": [
        {
          "indexed": false,
          "internalType": "address",
          "name": "buyer",
          "type": "address"
        }
      ],
      "name": "LogPaidToWinner",
      "type": "event"
    },
    {
      "anonymous": false,
      "inputs": [
        {
          "indexed": false,
          "internalType": "bool",
          "name": "stat",
          "type": "bool"
        },
        {
          "indexed": false,
          "internalType": "string",
          "name": "message",
          "type": "string"
        },
        {
          "components": [
            {
              "internalType": "uint256",
              "name": "_id",
              "type": "uint256"
            },
            {
              "internalType": "uint256",
              "name": "ticketLuckyNumber",
              "type": "uint256"
            },
            {
              "internalType": "address payable",
              "name": "buyer",
              "type": "address"
            },
            {
              "internalType": "string",
              "name": "ticketHash",
              "type": "string"
            },
            {
              "internalType": "string",
              "name": "buyDate",
              "type": "string"
            },
            {
              "internalType": "string",
              "name": "playerAliasName",
              "type": "string"
            }
          ],
          "indexed": false,
          "internalType": "struct Lottery.Ticket",
          "name": "winner",
          "type": "tuple"
        }
      ],
      "name": "LogPickedWinner",
      "type": "event"
    },
    {
      "anonymous": false,
      "inputs": [
        {
          "indexed": false,
          "internalType": "bool",
          "name": "stat",
          "type": "bool"
        },
        {
          "indexed": false,
          "internalType": "address",
          "name": "buyer",
          "type": "address"
        },
        {
          "indexed": false,
          "internalType": "uint256",
          "name": "soldTicketsCount",
          "type": "uint256"
        },
        {
          "indexed": false,
          "internalType": "string",
          "name": "ticketHash",
          "type": "string"
        },
        {
          "indexed": false,
          "internalType": "string",
          "name": "buyDate",
          "type": "string"
        },
        {
          "indexed": false,
          "internalType": "string",
          "name": "playerAliasName",
          "type": "string"
        }
      ],
      "name": "LogTicketSold",
      "type": "event"
    },
    {
      "inputs": [
        {
          "internalType": "string",
          "name": "ticketHash",
          "type": "string"
        },
        {
          "internalType": "string",
          "name": "buyDate",
          "type": "string"
        },
        {
          "internalType": "uint256",
          "name": "ticketCount",
          "type": "uint256"
        },
        {
          "internalType": "string",
          "name": "playerAliasName",
          "type": "string"
        }
      ],
      "name": "buyATicket",
      "outputs": [],
      "stateMutability": "payable",
      "type": "function"
    },
    {
      "inputs": [
        {
          "internalType": "string",
          "name": "stat",
          "type": "string"
        }
      ],
      "name": "changeGameState",
      "outputs": [],
      "stateMutability": "nonpayable",
      "type": "function"
    },
    {
      "inputs": [
        {
          "internalType": "uint256",
          "name": "_oneTicketPriceByWei",
          "type": "uint256"
        }
      ],
      "name": "changeTicketPrice",
      "outputs": [],
      "stateMutability": "nonpayable",
      "type": "function"
    },
    {
      "inputs": [],
      "name": "contractCommissionAddress",
      "outputs": [
        {
          "internalType": "address payable",
          "name": "",
          "type": "address"
        }
      ],
      "stateMutability": "view",
      "type": "function"
    },
    {
      "inputs": [],
      "name": "contractCommissionRate",
      "outputs": [
        {
          "internalType": "uint8",
          "name": "",
          "type": "uint8"
        }
      ],
      "stateMutability": "view",
      "type": "function"
    },
    {
      "inputs": [],
      "name": "contractPledgingAddress",
      "outputs": [
        {
          "internalType": "address payable",
          "name": "",
          "type": "address"
        }
      ],
      "stateMutability": "view",
      "type": "function"
    },
    {
      "inputs": [],
      "name": "deleteCurrentGame",
      "outputs": [],
      "stateMutability": "nonpayable",
      "type": "function"
    },
    {
      "inputs": [
        {
          "internalType": "address payable",
          "name": "theReceiver",
          "type": "address"
        }
      ],
      "name": "dummyBid",
      "outputs": [],
      "stateMutability": "payable",
      "type": "function"
    },
    {
      "inputs": [
        {
          "components": [
            {
              "internalType": "uint256",
              "name": "_id",
              "type": "uint256"
            },
            {
              "internalType": "uint256",
              "name": "ticketLuckyNumber",
              "type": "uint256"
            },
            {
              "internalType": "address payable",
              "name": "buyer",
              "type": "address"
            },
            {
              "internalType": "string",
              "name": "ticketHash",
              "type": "string"
            },
            {
              "internalType": "string",
              "name": "buyDate",
              "type": "string"
            },
            {
              "internalType": "string",
              "name": "playerAliasName",
              "type": "string"
            }
          ],
          "internalType": "struct Lottery.Ticket[]",
          "name": "_tickets",
          "type": "tuple[]"
        }
      ],
      "name": "dummyFillTickets",
      "outputs": [],
      "stateMutability": "nonpayable",
      "type": "function"
    },
    {
      "inputs": [],
      "name": "endGame",
      "outputs": [],
      "stateMutability": "nonpayable",
      "type": "function"
    },
    {
      "inputs": [],
      "name": "extractTickets",
      "outputs": [
        {
          "components": [
            {
              "internalType": "uint256",
              "name": "_id",
              "type": "uint256"
            },
            {
              "internalType": "uint256",
              "name": "ticketLuckyNumber",
              "type": "uint256"
            },
            {
              "internalType": "address payable",
              "name": "buyer",
              "type": "address"
            },
            {
              "internalType": "string",
              "name": "ticketHash",
              "type": "string"
            },
            {
              "internalType": "string",
              "name": "buyDate",
              "type": "string"
            },
            {
              "internalType": "string",
              "name": "playerAliasName",
              "type": "string"
            }
          ],
          "internalType": "struct Lottery.Ticket[]",
          "name": "",
          "type": "tuple[]"
        }
      ],
      "stateMutability": "view",
      "type": "function"
    },
    {
      "inputs": [
        {
          "internalType": "string",
          "name": "s",
          "type": "string"
        }
      ],
      "name": "fromHex",
      "outputs": [
        {
          "internalType": "bytes",
          "name": "",
          "type": "bytes"
        }
      ],
      "stateMutability": "pure",
      "type": "function"
    },
    {
      "inputs": [
        {
          "internalType": "uint8",
          "name": "c",
          "type": "uint8"
        }
      ],
      "name": "fromHexChar",
      "outputs": [
        {
          "internalType": "uint8",
          "name": "res",
          "type": "uint8"
        }
      ],
      "stateMutability": "pure",
      "type": "function"
    },
    {
      "inputs": [],
      "name": "gameState",
      "outputs": [
        {
          "internalType": "enum Lottery.GameState",
          "name": "",
          "type": "uint8"
        }
      ],
      "stateMutability": "view",
      "type": "function"
    },
    {
      "inputs": [],
      "name": "getContractBalance",
      "outputs": [
        {
          "internalType": "uint256",
          "name": "",
          "type": "uint256"
        }
      ],
      "stateMutability": "view",
      "type": "function"
    },
    {
      "inputs": [],
      "name": "getContractCommissionAddress",
      "outputs": [
        {
          "internalType": "address payable",
          "name": "",
          "type": "address"
        }
      ],
      "stateMutability": "view",
      "type": "function"
    },
    {
      "inputs": [],
      "name": "getContractCommissionRate",
      "outputs": [
        {
          "internalType": "uint8",
          "name": "",
          "type": "uint8"
        }
      ],
      "stateMutability": "view",
      "type": "function"
    },
    {
      "inputs": [],
      "name": "getCurrentGameCommission",
      "outputs": [
        {
          "internalType": "uint256",
          "name": "",
          "type": "uint256"
        }
      ],
      "stateMutability": "view",
      "type": "function"
    },
    {
      "inputs": [],
      "name": "getDrawingDate",
      "outputs": [],
      "stateMutability": "nonpayable",
      "type": "function"
    },
    {
      "inputs": [],
      "name": "getGameInfo",
      "outputs": [
        {
          "internalType": "enum Lottery.GameState",
          "name": "",
          "type": "uint8"
        },
        {
          "internalType": "uint256",
          "name": "",
          "type": "uint256"
        },
        {
          "internalType": "uint256",
          "name": "",
          "type": "uint256"
        },
        {
          "internalType": "uint256",
          "name": "",
          "type": "uint256"
        },
        {
          "internalType": "uint256",
          "name": "",
          "type": "uint256"
        }
      ],
      "stateMutability": "view",
      "type": "function"
    },
    {
      "inputs": [],
      "name": "getNetPrizeAmountInToken",
      "outputs": [
        {
          "internalType": "uint256",
          "name": "",
          "type": "uint256"
        }
      ],
      "stateMutability": "view",
      "type": "function"
    },
    {
      "inputs": [],
      "name": "getPrizeAmountInToken",
      "outputs": [
        {
          "internalType": "uint256",
          "name": "",
          "type": "uint256"
        }
      ],
      "stateMutability": "view",
      "type": "function"
    },
    {
      "inputs": [],
      "name": "getReminedTime",
      "outputs": [
        {
          "internalType": "uint256",
          "name": "",
          "type": "uint256"
        },
        {
          "internalType": "uint256",
          "name": "",
          "type": "uint256"
        }
      ],
      "stateMutability": "view",
      "type": "function"
    },
    {
      "inputs": [],
      "name": "getTicketPriceInWei",
      "outputs": [
        {
          "internalType": "uint256",
          "name": "",
          "type": "uint256"
        }
      ],
      "stateMutability": "view",
      "type": "function"
    },
    {
      "inputs": [],
      "name": "getWinner",
      "outputs": [
        {
          "components": [
            {
              "internalType": "uint256",
              "name": "_id",
              "type": "uint256"
            },
            {
              "internalType": "uint256",
              "name": "ticketLuckyNumber",
              "type": "uint256"
            },
            {
              "internalType": "address payable",
              "name": "buyer",
              "type": "address"
            },
            {
              "internalType": "string",
              "name": "ticketHash",
              "type": "string"
            },
            {
              "internalType": "string",
              "name": "buyDate",
              "type": "string"
            },
            {
              "internalType": "string",
              "name": "playerAliasName",
              "type": "string"
            }
          ],
          "internalType": "struct Lottery.Ticket",
          "name": "",
          "type": "tuple"
        }
      ],
      "stateMutability": "view",
      "type": "function"
    },
    {
      "inputs": [],
      "name": "name",
      "outputs": [
        {
          "internalType": "string",
          "name": "",
          "type": "string"
        }
      ],
      "stateMutability": "view",
      "type": "function"
    },
    {
      "inputs": [],
      "name": "owner",
      "outputs": [
        {
          "internalType": "address payable",
          "name": "",
          "type": "address"
        }
      ],
      "stateMutability": "view",
      "type": "function"
    },
    {
      "inputs": [],
      "name": "pauseGame",
      "outputs": [],
      "stateMutability": "nonpayable",
      "type": "function"
    },
    {
      "inputs": [],
      "name": "pickDummyFlag32",
      "outputs": [
        {
          "internalType": "bytes32",
          "name": "",
          "type": "bytes32"
        }
      ],
      "stateMutability": "view",
      "type": "function"
    },
    {
      "inputs": [],
      "name": "pickDummyFlagBytes",
      "outputs": [
        {
          "internalType": "bytes",
          "name": "",
          "type": "bytes"
        }
      ],
      "stateMutability": "view",
      "type": "function"
    },
    {
      "inputs": [],
      "name": "pickDummyFlagStr",
      "outputs": [
        {
          "internalType": "string",
          "name": "",
          "type": "string"
        }
      ],
      "stateMutability": "view",
      "type": "function"
    },
    {
      "inputs": [],
      "name": "pickDummyHashMap",
      "outputs": [
        {
          "internalType": "string[]",
          "name": "",
          "type": "string[]"
        }
      ],
      "stateMutability": "view",
      "type": "function"
    },
    {
      "inputs": [
        {
          "internalType": "bool",
          "name": "shouldPayToWinner",
          "type": "bool"
        }
      ],
      "name": "pickWinner",
      "outputs": [],
      "stateMutability": "nonpayable",
      "type": "function"
    },
    {
      "inputs": [],
      "name": "resumeGame",
      "outputs": [],
      "stateMutability": "nonpayable",
      "type": "function"
    },
    {
      "inputs": [
        {
          "internalType": "string",
          "name": "ticketHash",
          "type": "string"
        },
        {
          "internalType": "uint256",
          "name": "ticketLuckyNumber",
          "type": "uint256"
        },
        {
          "internalType": "string",
          "name": "theSalt",
          "type": "string"
        }
      ],
      "name": "revealTicketLuckyNumber",
      "outputs": [
        {
          "internalType": "bool",
          "name": "",
          "type": "bool"
        }
      ],
      "stateMutability": "nonpayable",
      "type": "function"
    },
    {
      "inputs": [
        {
          "internalType": "address payable",
          "name": "_contractCommissionAddress",
          "type": "address"
        }
      ],
      "name": "setContractCommissionAddress",
      "outputs": [],
      "stateMutability": "nonpayable",
      "type": "function"
    },
    {
      "inputs": [
        {
          "internalType": "uint8",
          "name": "rate",
          "type": "uint8"
        }
      ],
      "name": "setContractCommissionRate",
      "outputs": [],
      "stateMutability": "nonpayable",
      "type": "function"
    },
    {
      "inputs": [
        {
          "internalType": "address payable",
          "name": "_newPledgingAddress",
          "type": "address"
        }
      ],
      "name": "setContractPledgingAddress",
      "outputs": [],
      "stateMutability": "nonpayable",
      "type": "function"
    },
    {
      "inputs": [
        {
          "internalType": "uint256",
          "name": "price",
          "type": "uint256"
        }
      ],
      "name": "setTicketPriceInWei",
      "outputs": [],
      "stateMutability": "nonpayable",
      "type": "function"
    },
    {
      "inputs": [
        {
          "internalType": "bytes32",
          "name": "data",
          "type": "bytes32"
        }
      ],
      "name": "toHex",
      "outputs": [
        {
          "internalType": "string",
          "name": "",
          "type": "string"
        }
      ],
      "stateMutability": "pure",
      "type": "function"
    },
    {
      "inputs": [
        {
          "internalType": "address payable",
          "name": "to",
          "type": "address"
        },
        {
          "internalType": "uint256",
          "name": "amount",
          "type": "uint256"
        }
      ],
      "name": "transfer",
      "outputs": [],
      "stateMutability": "nonpayable",
      "type": "function"
    },
    {
      "inputs": [],
      "name": "withdrawWinner",
      "outputs": [
        {
          "internalType": "bool",
          "name": "",
          "type": "bool"
        }
      ],
      "stateMutability": "payable",
      "type": "function"
    }
  ],
  "bytecode": "0x60806040526040518060600160405280602c81526020016200620f602c91396000908051906020019062000035929190620003b3565b506047600360146101000a81548160ff021916908360ff16021790555060038060156101000a81548160ff021916908360038111156200009e577f4e487b7100000000000000000000000000000000000000000000000000000000600052602160045260246000fd5b02179055506001600560006101000a81548160ff021916908315150217905550600060125560006013556305f5e100601455348015620000dd57600080fd5b5033600160006101000a81548173ffffffffffffffffffffffffffffffffffffffff021916908373ffffffffffffffffffffffffffffffffffffffff160217905550600160009054906101000a900473ffffffffffffffffffffffffffffffffffffffff16600260006101000a81548173ffffffffffffffffffffffffffffffffffffffff021916908373ffffffffffffffffffffffffffffffffffffffff160217905550600160009054906101000a900473ffffffffffffffffffffffffffffffffffffffff16600360006101000a81548173ffffffffffffffffffffffffffffffffffffffff021916908373ffffffffffffffffffffffffffffffffffffffff160217905550600060128190555060006013819055506000600460405162000207906200056b565b908152602001604051809103902060006101000a81548160ff021916908360038111156200025e577f4e487b7100000000000000000000000000000000000000000000000000000000600052602160045260246000fd5b021790555060016004604051620002759062000582565b908152602001604051809103902060006101000a81548160ff02191690836003811115620002cc577f4e487b7100000000000000000000000000000000000000000000000000000000600052602160045260246000fd5b021790555060026004604051620002e39062000599565b908152602001604051809103902060006101000a81548160ff021916908360038111156200033a577f4e487b7100000000000000000000000000000000000000000000000000000000600052602160045260246000fd5b0217905550600360046040516200035190620005b0565b908152602001604051809103902060006101000a81548160ff02191690836003811115620003a8577f4e487b7100000000000000000000000000000000000000000000000000000000600052602160045260246000fd5b021790555062000637565b828054620003c190620005d2565b90600052602060002090601f016020900481019282620003e5576000855562000431565b82601f106200040057805160ff191683800117855562000431565b8280016001018555821562000431579182015b828111156200043057825182559160200191906001019062000413565b5b50905062000440919062000444565b5090565b5b808211156200045f57600081600090555060010162000445565b5090565b600062000472600783620005c7565b91507f4f6e476f696e67000000000000000000000000000000000000000000000000006000830152600782019050919050565b6000620004b4600983620005c7565b91507f52657665616c696e6700000000000000000000000000000000000000000000006000830152600982019050919050565b6000620004f6600783620005c7565b91507f44726177696e67000000000000000000000000000000000000000000000000006000830152600782019050919050565b600062000538600883620005c7565b91507f46696e69736865640000000000000000000000000000000000000000000000006000830152600882019050919050565b6000620005788262000463565b9150819050919050565b60006200058f82620004a5565b9150819050919050565b6000620005a682620004e7565b9150819050919050565b6000620005bd8262000529565b9150819050919050565b600081905092915050565b60006002820490506001821680620005eb57607f821691505b6020821081141562000602576200060162000608565b5b50919050565b7f4e487b7100000000000000000000000000000000000000000000000000000000600052602260045260246000fd5b615bc880620006476000396000f3fe6080604052600436106102515760003560e01c806372dbab0911610139578063a9059cbb116100b6578063dd32858e1161007a578063dd32858e1461081c578063df0d48fd1461083a578063e2599dec14610865578063f11b3a5f14610890578063f840389c146108b9578063f9b87587146108e557610251565b8063a9059cbb1461074d578063bc5c420e14610776578063c3082eb01461079f578063c519f861146107c8578063d1f9c24d146107f157610251565b80638da5cb5b116100fd5780638da5cb5b146106735780638e7e34d71461069e5780638e7ea5b2146106db57806395a52296146107065780639746df451461073157610251565b806372dbab09146105ad5780637557f394146105c957806377694c4e146105f457806386e384db1461061f5780638c408f1c1461064857610251565b8063365be06e116101d2578063488837861161019657806348883786146104c1578063499831f2146104ec57806349e894d81461050357806359bde0ad146105405780636cbc2ded1461056b5780636f9fb98a1461058257610251565b8063365be06e146104045780633cc4c6ce1461042f57806341d8ab8e146104465780634630a0ee1461046f578063469b8d671461049857610251565b80631f5e7972116102195780631f5e79721461032f578063245d9bb51461035a578063260c4a67146103855780632b74e9841461039c5780632ecb20d3146103c757610251565b806306fdde03146102565780630bdf49a5146102815780630f9b6b02146102ac5780631746bd1b146102e95780631e6f341914610318575b600080fd5b34801561026257600080fd5b5061026b610910565b60405161027891906152ea565b60405180910390f35b34801561028d57600080fd5b5061029661099e565b6040516102a3919061523f565b60405180910390f35b3480156102b857600080fd5b506102d360048036038101906102ce91906141dc565b6109a8565b6040516102e09190614fba565b60405180910390f35b3480156102f557600080fd5b506102fe610bdf565b60405161030f959493929190615297565b60405180910390f35b34801561032457600080fd5b5061032d610c17565b005b34801561033b57600080fd5b50610344610c19565b60405161035191906152ea565b60405180910390f35b34801561036657600080fd5b5061036f610cab565b60405161037c9190614f98565b60405180910390f35b34801561039157600080fd5b5061039a610fe6565b005b3480156103a857600080fd5b506103b1611138565b6040516103be91906153dc565b60405180910390f35b3480156103d357600080fd5b506103ee60048036038101906103e9919061437a565b611142565b6040516103fb9190615420565b60405180910390f35b34801561041057600080fd5b506104196114ad565b6040516104269190614f5b565b60405180910390f35b34801561043b57600080fd5b506104446114d3565b005b34801561045257600080fd5b5061046d6004803603810190610468919061411c565b611580565b005b34801561047b57600080fd5b5061049660048036038101906104919190614351565b61158e565b005b3480156104a457600080fd5b506104bf60048036038101906104ba9190614072565b611628565b005b3480156104cd57600080fd5b506104d66116fc565b6040516104e391906153dc565b60405180910390f35b3480156104f857600080fd5b50610501611706565b005b34801561050f57600080fd5b5061052a60048036038101906105259190614145565b6117b3565b60405161053791906152ea565b60405180910390f35b34801561054c57600080fd5b506105556117f2565b604051610562919061525a565b60405180910390f35b34801561057757600080fd5b50610580611884565b005b34801561058e57600080fd5b50610597611916565b6040516105a491906153dc565b60405180910390f35b6105c760048036038101906105c291906142a6565b611957565b005b3480156105d557600080fd5b506105de611e1a565b6040516105eb91906153dc565b60405180910390f35b34801561060057600080fd5b50610609611e3b565b6040516106169190614f76565b60405180910390f35b34801561062b57600080fd5b506106466004803603810190610641919061437a565b611fce565b005b34801561065457600080fd5b5061065d61207c565b60405161066a91906153dc565b60405180910390f35b34801561067f57600080fd5b5061068861211b565b6040516106959190614f5b565b60405180910390f35b3480156106aa57600080fd5b506106c560048036038101906106c09190614265565b612141565b6040516106d2919061525a565b60405180910390f35b3480156106e757600080fd5b506106f061235d565b6040516106fd91906153ba565b60405180910390f35b34801561071257600080fd5b5061071b612597565b6040516107289190614f5b565b60405180910390f35b61074b60048036038101906107469190614072565b612651565b005b34801561075957600080fd5b50610774600480360381019061076f919061409b565b612705565b005b34801561078257600080fd5b5061079d60048036038101906107989190614072565b6127e0565b005b3480156107ab57600080fd5b506107c660048036038101906107c191906140d7565b6128b4565b005b3480156107d457600080fd5b506107ef60048036038101906107ea9190614197565b612d38565b005b3480156107fd57600080fd5b50610806612e49565b604051610813919061527c565b60405180910390f35b610824612e5c565b6040516108319190614fba565b60405180910390f35b34801561084657600080fd5b5061084f612f4d565b60405161085c9190614f5b565b60405180910390f35b34801561087157600080fd5b5061087a612f73565b6040516108879190615420565b60405180910390f35b34801561089c57600080fd5b506108b760048036038101906108b29190614351565b612f8a565b005b3480156108c557600080fd5b506108ce613024565b6040516108dc9291906153f7565b60405180910390f35b3480156108f157600080fd5b506108fa613033565b6040516109079190615420565b60405180910390f35b6000805461091d906158e4565b80601f0160208091040260200160405190810160405280929190818152602001828054610949906158e4565b80156109965780601f1061096b57610100808354040283529160200191610996565b820191906000526020600020905b81548152906001019060200180831161097957829003601f168201915b505050505081565b6000600754905090565b600080600190505b6012548111610bd05786866040516020016109cc929190614dfd565b6040516020818303038152906040528051906020012060096000838152602001908152602001600020600301604051602001610a089190614e8e565b60405160208183030381529060405280519060200120148015610a775750604051602001610a3590614f15565b604051602081830303815290604052805190602001208787604051602001610a5e929190614dfd565b6040516020818303038152906040528051906020012014155b15610bbd576000610a8786613046565b60096000848152602001908152602001600020600401600960008581526020019081526020016000206005018787604051602001610ac9959493929190614e2d565b60405160208183030381529060405290506000600282604051610aec9190614de6565b602060405180830381855afa158015610b09573d6000803e3d6000fd5b5050506040513d601f19601f82011682018060405250810190610b2c919061416e565b90506000610b39826117b3565b90508989604051602001610b4e929190614edc565b6040516020818303038152906040528051906020012081604051602001610b759190614e16565b604051602081830303815290604052805190602001201415610bb9578760096000868152602001908152602001600020600101819055506001945050505050610bd6565b5050505b8080610bc89061594a565b9150506109b0565b50600090505b95945050505050565b6000806000806000600360159054906101000a900460ff16601254610c02611e1a565b42601154945094509450945094509091929394565b565b606060088054610c28906158e4565b80601f0160208091040260200160405190810160405280929190818152602001828054610c54906158e4565b8015610ca15780601f10610c7657610100808354040283529160200191610ca1565b820191906000526020600020905b815481529060010190602001808311610c8457829003601f168201915b5050505050905090565b6060600060125467ffffffffffffffff811115610cf1577f4e487b7100000000000000000000000000000000000000000000000000000000600052604160045260246000fd5b604051908082528060200260200182016040528015610d2a57816020015b610d17613cf6565b815260200190600190039081610d0f5790505b5090506000600190505b6012548111610fde57600960008281526020019081526020016000206040518060c001604052908160008201548152602001600182015481526020016002820160009054906101000a900473ffffffffffffffffffffffffffffffffffffffff1673ffffffffffffffffffffffffffffffffffffffff1673ffffffffffffffffffffffffffffffffffffffff168152602001600382018054610dd5906158e4565b80601f0160208091040260200160405190810160405280929190818152602001828054610e01906158e4565b8015610e4e5780601f10610e2357610100808354040283529160200191610e4e565b820191906000526020600020905b815481529060010190602001808311610e3157829003601f168201915b50505050508152602001600482018054610e67906158e4565b80601f0160208091040260200160405190810160405280929190818152602001828054610e93906158e4565b8015610ee05780601f10610eb557610100808354040283529160200191610ee0565b820191906000526020600020905b815481529060010190602001808311610ec357829003601f168201915b50505050508152602001600582018054610ef9906158e4565b80601f0160208091040260200160405190810160405280929190818152602001828054610f25906158e4565b8015610f725780601f10610f4757610100808354040283529160200191610f72565b820191906000526020600020905b815481529060010190602001808311610f5557829003601f168201915b50505050508152505082600183610f899190615750565b81518110610fc0577f4e487b7100000000000000000000000000000000000000000000000000000000600052603260045260246000fd5b60200260200101819052508080610fd69061594a565b915050610d34565b508091505090565b600160009054906101000a900473ffffffffffffffffffffffffffffffffffffffff1673ffffffffffffffffffffffffffffffffffffffff163373ffffffffffffffffffffffffffffffffffffffff1614611076576040517f08c379a000000000000000000000000000000000000000000000000000000000815260040161106d9061530c565b60405180910390fd5b6000600560006101000a81548160ff02191690831515021790555060405180602001604052806000815250600a60030190805190602001906110b9929190613d42565b50600060128190555060006013819055506000600360156101000a81548160ff02191690836003811115611116577f4e487b7100000000000000000000000000000000000000000000000000000000600052602160045260246000fd5b02179055506001600560006101000a81548160ff021916908315150217905550565b6000601454905090565b60007f30000000000000000000000000000000000000000000000000000000000000007effffffffffffffffffffffffffffffffffffffffffffffffffffffffffffff19168260f81b7effffffffffffffffffffffffffffffffffffffffffffffffffffffffffffff19161015801561122257507f39000000000000000000000000000000000000000000000000000000000000007effffffffffffffffffffffffffffffffffffffffffffffffffffffffffffff19168260f81b7effffffffffffffffffffffffffffffffffffffffffffffffffffffffffffff191611155b1561125d577f300000000000000000000000000000000000000000000000000000000000000060f81c826112569190615784565b90506114a8565b7f61000000000000000000000000000000000000000000000000000000000000007effffffffffffffffffffffffffffffffffffffffffffffffffffffffffffff19168260f81b7effffffffffffffffffffffffffffffffffffffffffffffffffffffffffffff19161015801561133b57507f66000000000000000000000000000000000000000000000000000000000000007effffffffffffffffffffffffffffffffffffffffffffffffffffffffffffff19168260f81b7effffffffffffffffffffffffffffffffffffffffffffffffffffffffffffff191611155b15611382577f610000000000000000000000000000000000000000000000000000000000000060f81c82600a6113719190615653565b61137b9190615784565b90506114a8565b7f41000000000000000000000000000000000000000000000000000000000000007effffffffffffffffffffffffffffffffffffffffffffffffffffffffffffff19168260f81b7effffffffffffffffffffffffffffffffffffffffffffffffffffffffffffff19161015801561146057507f46000000000000000000000000000000000000000000000000000000000000007effffffffffffffffffffffffffffffffffffffffffffffffffffffffffffff19168260f81b7effffffffffffffffffffffffffffffffffffffffffffffffffffffffffffff191611155b156114a7577f410000000000000000000000000000000000000000000000000000000000000060f81c82600a6114969190615653565b6114a09190615784565b90506114a8565b5b919050565b600260009054906101000a900473ffffffffffffffffffffffffffffffffffffffff1681565b600160009054906101000a900473ffffffffffffffffffffffffffffffffffffffff1673ffffffffffffffffffffffffffffffffffffffff163373ffffffffffffffffffffffffffffffffffffffff1614611563576040517f08c379a000000000000000000000000000000000000000000000000000000000815260040161155a9061530c565b60405180910390fd5b6001600560006101000a81548160ff021916908315150217905550565b61158b6000826131f9565b50565b600160009054906101000a900473ffffffffffffffffffffffffffffffffffffffff1673ffffffffffffffffffffffffffffffffffffffff163373ffffffffffffffffffffffffffffffffffffffff161461161e576040517f08c379a00000000000000000000000000000000000000000000000000000000081526004016116159061530c565b60405180910390fd5b8060148190555050565b600160009054906101000a900473ffffffffffffffffffffffffffffffffffffffff1673ffffffffffffffffffffffffffffffffffffffff163373ffffffffffffffffffffffffffffffffffffffff16146116b8576040517f08c379a00000000000000000000000000000000000000000000000000000000081526004016116af9061530c565b60405180910390fd5b80600360006101000a81548173ffffffffffffffffffffffffffffffffffffffff021916908373ffffffffffffffffffffffffffffffffffffffff16021790555050565b6000601354905090565b600160009054906101000a900473ffffffffffffffffffffffffffffffffffffffff1673ffffffffffffffffffffffffffffffffffffffff163373ffffffffffffffffffffffffffffffffffffffff1614611796576040517f08c379a000000000000000000000000000000000000000000000000000000000815260040161178d9061530c565b60405180910390fd5b6000600560006101000a81548160ff021916908315150217905550565b60606117be82613a55565b6117cb608084901b613a55565b6040516020016117dc929190614ea5565b6040516020818303038152906040529050919050565b606060068054611801906158e4565b80601f016020809104026020016040519081016040528092919081815260200182805461182d906158e4565b801561187a5780601f1061184f5761010080835404028352916020019161187a565b820191906000526020600020905b81548152906001019060200180831161185d57829003601f168201915b5050505050905090565b600160009054906101000a900473ffffffffffffffffffffffffffffffffffffffff1673ffffffffffffffffffffffffffffffffffffffff163373ffffffffffffffffffffffffffffffffffffffff1614611914576040517f08c379a000000000000000000000000000000000000000000000000000000000815260040161190b9061530c565b60405180910390fd5b565b6000600160009054906101000a900473ffffffffffffffffffffffffffffffffffffffff1673ffffffffffffffffffffffffffffffffffffffff1631905090565b600560009054906101000a900460ff166119a6576040517f08c379a000000000000000000000000000000000000000000000000000000000815260040161199d9061537a565b60405180910390fd5b600182146119e9576040517f08c379a00000000000000000000000000000000000000000000000000000000081526004016119e09061539a565b60405180910390fd5b601454341015611a5157601454604051602001611a069190614f2a565b6040516020818303038152906040526040517f08c379a0000000000000000000000000000000000000000000000000000000008152600401611a4891906152ea565b60405180910390fd5b600380811115611a8a577f4e487b7100000000000000000000000000000000000000000000000000000000600052602160045260246000fd5b600360159054906101000a900460ff166003811115611ad2577f4e487b7100000000000000000000000000000000000000000000000000000000600052602160045260246000fd5b1415611b6a5760405180602001604052806000815250600a6003019080519060200190611b00929190613d42565b50600060128190555060006013819055506000600360156101000a81548160ff02191690836003811115611b5d577f4e487b7100000000000000000000000000000000000000000000000000000000600052602160045260246000fd5b0217905550426010819055505b601584604051611b7a9190614e16565b908152602001604051809103902060009054906101000a900460ff1615611bde577f4cd0f09fe4b473e1ac931304d71eb2532b88a35d294b83f949fd0408954bc5d56000336012548785604051611bd595949392919061504b565b60405180910390a15b6000600260009054906101000a900473ffffffffffffffffffffffffffffffffffffffff1673ffffffffffffffffffffffffffffffffffffffff166108fc349081150290604051600060405180830381858888f19350505050905080611c86577f4cd0f09fe4b473e1ac931304d71eb2532b88a35d294b83f949fd0408954bc5d56000336012548886604051611c789594939291906150bf565b60405180910390a150611e14565b60126000815480929190611c999061594a565b91905055506040518060c001604052806012548152602001600081526020013373ffffffffffffffffffffffffffffffffffffffff16815260200186815260200185815260200183815250600960006012548152602001908152602001600020600082015181600001556020820151816001015560408201518160020160006101000a81548173ffffffffffffffffffffffffffffffffffffffff021916908373ffffffffffffffffffffffffffffffffffffffff1602179055506060820151816003019080519060200190611d70929190613d42565b506080820151816004019080519060200190611d8d929190613d42565b5060a0820151816005019080519060200190611daa929190613d42565b509050503460136000828254611dc091906155fd565b92505081905550426011819055507f4cd0f09fe4b473e1ac931304d71eb2532b88a35d294b83f949fd0408954bc5d5600133601254888887604051611e0a96959493929190614fd5565b60405180910390a1505b50505050565b6000611e24613cbd565b611e2c6116fc565b611e369190615750565b905090565b6060600060125467ffffffffffffffff811115611e81577f4e487b7100000000000000000000000000000000000000000000000000000000600052604160045260246000fd5b604051908082528060200260200182016040528015611eb457816020015b6060815260200190600190039081611e9f5790505b5090506000600190505b6012548111611fc657601660008281526020019081526020016000208054611ee5906158e4565b80601f0160208091040260200160405190810160405280929190818152602001828054611f11906158e4565b8015611f5e5780601f10611f3357610100808354040283529160200191611f5e565b820191906000526020600020905b815481529060010190602001808311611f4157829003601f168201915b505050505082600183611f719190615750565b81518110611fa8577f4e487b7100000000000000000000000000000000000000000000000000000000600052603260045260246000fd5b60200260200101819052508080611fbe9061594a565b915050611ebe565b508091505090565b600160009054906101000a900473ffffffffffffffffffffffffffffffffffffffff1673ffffffffffffffffffffffffffffffffffffffff163373ffffffffffffffffffffffffffffffffffffffff161461205e576040517f08c379a00000000000000000000000000000000000000000000000000000000081526004016120559061530c565b60405180910390fd5b80600360146101000a81548160ff021916908360ff16021790555050565b6000600160009054906101000a900473ffffffffffffffffffffffffffffffffffffffff1673ffffffffffffffffffffffffffffffffffffffff163373ffffffffffffffffffffffffffffffffffffffff161461210e576040517f08c379a00000000000000000000000000000000000000000000000000000000081526004016121059061530c565b60405180910390fd5b612116613cbd565b905090565b600160009054906101000a900473ffffffffffffffffffffffffffffffffffffffff1681565b6060600082905060006002825161215891906159d1565b1461216257600080fd5b600060028251612172919061568a565b67ffffffffffffffff8111156121b1577f4e487b7100000000000000000000000000000000000000000000000000000000600052604160045260246000fd5b6040519080825280601f01601f1916602001820160405280156121e35781602001600182028036833780820191505090505b50905060005b600283516121f7919061568a565b8110156123525761226583600183600261221191906156bb565b61221b91906155fd565b81518110612252577f4e487b7100000000000000000000000000000000000000000000000000000000600052603260045260246000fd5b602001015160f81c60f81b60f81c611142565b60106122c28584600261227891906156bb565b815181106122af577f4e487b7100000000000000000000000000000000000000000000000000000000600052603260045260246000fd5b602001015160f81c60f81b60f81c611142565b6122cc9190615715565b6122d69190615653565b60f81b828281518110612312577f4e487b7100000000000000000000000000000000000000000000000000000000600052603260045260246000fd5b60200101907effffffffffffffffffffffffffffffffffffffffffffffffffffffffffffff1916908160001a9053508061234b9061594a565b90506121e9565b508092505050919050565b612365613cf6565b600a6040518060c001604052908160008201548152602001600182015481526020016002820160009054906101000a900473ffffffffffffffffffffffffffffffffffffffff1673ffffffffffffffffffffffffffffffffffffffff1673ffffffffffffffffffffffffffffffffffffffff1681526020016003820180546123ec906158e4565b80601f0160208091040260200160405190810160405280929190818152602001828054612418906158e4565b80156124655780601f1061243a57610100808354040283529160200191612465565b820191906000526020600020905b81548152906001019060200180831161244857829003601f168201915b5050505050815260200160048201805461247e906158e4565b80601f01602080910402602001604051908101604052809291908181526020018280546124aa906158e4565b80156124f75780601f106124cc576101008083540402835291602001916124f7565b820191906000526020600020905b8154815290600101906020018083116124da57829003601f168201915b50505050508152602001600582018054612510906158e4565b80601f016020809104026020016040519081016040528092919081815260200182805461253c906158e4565b80156125895780601f1061255e57610100808354040283529160200191612589565b820191906000526020600020905b81548152906001019060200180831161256c57829003601f168201915b505050505081525050905090565b6000600160009054906101000a900473ffffffffffffffffffffffffffffffffffffffff1673ffffffffffffffffffffffffffffffffffffffff163373ffffffffffffffffffffffffffffffffffffffff1614612629576040517f08c379a00000000000000000000000000000000000000000000000000000000081526004016126209061530c565b60405180910390fd5b600360009054906101000a900473ffffffffffffffffffffffffffffffffffffffff16905090565b60008173ffffffffffffffffffffffffffffffffffffffff166108fc349081150290604051600060405180830381858888f193505050509050806126ca576040517f08c379a00000000000000000000000000000000000000000000000000000000081526004016126c19061535a565b60405180910390fd5b7f6b2d34da8a9ae9c604900dab493c5ce5aa53df4c5d8a8af6a83794391557c440346040516126f9919061532c565b60405180910390a15050565b600160009054906101000a900473ffffffffffffffffffffffffffffffffffffffff1673ffffffffffffffffffffffffffffffffffffffff163373ffffffffffffffffffffffffffffffffffffffff1614612795576040517f08c379a000000000000000000000000000000000000000000000000000000000815260040161278c9061530c565b60405180910390fd5b8173ffffffffffffffffffffffffffffffffffffffff166108fc829081150290604051600060405180830381858888f193505050501580156127db573d6000803e3d6000fd5b505050565b600160009054906101000a900473ffffffffffffffffffffffffffffffffffffffff1673ffffffffffffffffffffffffffffffffffffffff163373ffffffffffffffffffffffffffffffffffffffff1614612870576040517f08c379a00000000000000000000000000000000000000000000000000000000081526004016128679061530c565b60405180910390fd5b80600260006101000a81548173ffffffffffffffffffffffffffffffffffffffff021916908373ffffffffffffffffffffffffffffffffffffffff16021790555050565b600160009054906101000a900473ffffffffffffffffffffffffffffffffffffffff1673ffffffffffffffffffffffffffffffffffffffff163373ffffffffffffffffffffffffffffffffffffffff1614612944576040517f08c379a000000000000000000000000000000000000000000000000000000000815260040161293b9061530c565b60405180910390fd5b60005b82829050811015612d335760018161295f91906155fd565b60128190555061296d613cf6565b6012548160000181815250508383838181106129b2577f4e487b7100000000000000000000000000000000000000000000000000000000600052603260045260246000fd5b90506020028101906129c49190615492565b60200135816020018181525050838383818110612a0a577f4e487b7100000000000000000000000000000000000000000000000000000000600052603260045260246000fd5b9050602002810190612a1c9190615492565b6040016020810190612a2e9190614072565b816040019073ffffffffffffffffffffffffffffffffffffffff16908173ffffffffffffffffffffffffffffffffffffffff1681525050838383818110612a9e577f4e487b7100000000000000000000000000000000000000000000000000000000600052603260045260246000fd5b9050602002810190612ab09190615492565b8060600190612abf919061543b565b8080601f016020809104026020016040519081016040528093929190818152602001838380828437600081840152601f19601f820116905080830192505050505050508160600181905250838383818110612b43577f4e487b7100000000000000000000000000000000000000000000000000000000600052603260045260246000fd5b9050602002810190612b559190615492565b8060800190612b64919061543b565b8080601f016020809104026020016040519081016040528093929190818152602001838380828437600081840152601f19601f820116905080830192505050505050508160800181905250838383818110612be8577f4e487b7100000000000000000000000000000000000000000000000000000000600052603260045260246000fd5b9050602002810190612bfa9190615492565b8060a00190612c09919061543b565b8080601f016020809104026020016040519081016040528093929190818152602001838380828437600081840152601f19601f820116905080830192505050505050508160a0018190525080600960006012548152602001908152602001600020600082015181600001556020820151816001015560408201518160020160006101000a81548173ffffffffffffffffffffffffffffffffffffffff021916908373ffffffffffffffffffffffffffffffffffffffff1602179055506060820151816003019080519060200190612ce1929190613d42565b506080820151816004019080519060200190612cfe929190613d42565b5060a0820151816005019080519060200190612d1b929190613d42565b50905050508080612d2b9061594a565b915050612947565b505050565b600160009054906101000a900473ffffffffffffffffffffffffffffffffffffffff1673ffffffffffffffffffffffffffffffffffffffff163373ffffffffffffffffffffffffffffffffffffffff1614612dc8576040517f08c379a0000000000000000000000000000000000000000000000000000000008152600401612dbf9061530c565b60405180910390fd5b60048282604051612dda929190614dfd565b908152602001604051809103902060009054906101000a900460ff16600360156101000a81548160ff02191690836003811115612e40577f4e487b7100000000000000000000000000000000000000000000000000000000600052602160045260246000fd5b02179055505050565b600360159054906101000a900460ff1681565b6000600160009054906101000a900473ffffffffffffffffffffffffffffffffffffffff1673ffffffffffffffffffffffffffffffffffffffff163373ffffffffffffffffffffffffffffffffffffffff1614612eee576040517f08c379a0000000000000000000000000000000000000000000000000000000008152600401612ee59061530c565b60405180910390fd5b600a60020160009054906101000a900473ffffffffffffffffffffffffffffffffffffffff1673ffffffffffffffffffffffffffffffffffffffff166108fc349081150290604051600060405180830381858888f19350505050905090565b600360009054906101000a900473ffffffffffffffffffffffffffffffffffffffff1681565b6000600360149054906101000a900460ff16905090565b600160009054906101000a900473ffffffffffffffffffffffffffffffffffffffff1673ffffffffffffffffffffffffffffffffffffffff163373ffffffffffffffffffffffffffffffffffffffff161461301a576040517f08c379a00000000000000000000000000000000000000000000000000000000081526004016130119061530c565b60405180910390fd5b8060148190555050565b60008042601154915091509091565b600360149054906101000a900460ff1681565b6060600082141561308e576040518060400160405280600181526020017f300000000000000000000000000000000000000000000000000000000000000081525090506131f4565b600082905060005b600082146130c05780806130a99061594a565b915050600a826130b9919061568a565b9150613096565b60008167ffffffffffffffff811115613102577f4e487b7100000000000000000000000000000000000000000000000000000000600052604160045260246000fd5b6040519080825280601f01601f1916602001820160405280156131345781602001600182028036833780820191505090505b50905060008290508593505b600084146131ec57600a8461315591906159d1565b603061316191906155fd565b60f81b828261316f906158ba565b925082815181106131a9577f4e487b7100000000000000000000000000000000000000000000000000000000600052603260045260246000fd5b60200101907effffffffffffffffffffffffffffffffffffffffffffffffffffffffffffff1916908160001a905350600a846131e5919061568a565b9350613140565b819450505050505b919050565b600160009054906101000a900473ffffffffffffffffffffffffffffffffffffffff1673ffffffffffffffffffffffffffffffffffffffff163373ffffffffffffffffffffffffffffffffffffffff1614613289576040517f08c379a00000000000000000000000000000000000000000000000000000000081526004016132809061530c565b60405180910390fd5b811580156132bb57506000600a6003016040516020016132a99190614e8e565b60405160208183030381529060405251115b15613300577f148ba937a34e2f4db07dd4f996ceba5904b19527ae59ed8b026e1792f8f6a7856001600a6040516132f39291906151b9565b60405180910390a1613a51565b6002600381111561333a577f4e487b7100000000000000000000000000000000000000000000000000000000600052602160045260246000fd5b600360159054906101000a900460ff166003811115613382577f4e487b7100000000000000000000000000000000000000000000000000000000600052602160045260246000fd5b146133c7577f148ba937a34e2f4db07dd4f996ceba5904b19527ae59ed8b026e1792f8f6a7856000600a6040516133ba929190615133565b60405180910390a1613a51565b600080600190505b6012548111613412576000600960008381526020019081526020016000206001015411156133ff57809150613412565b808061340a9061594a565b9150506133cf565b50600081141561345d577f148ba937a34e2f4db07dd4f996ceba5904b19527ae59ed8b026e1792f8f6a7856000600a60405161344f9291906151fc565b60405180910390a150613a51565b60008190506000600190505b6012548111613894578281141561347f57613881565b6000600960008481526020019081526020016000206001015490506000600960008481526020019081526020016000206001015414156134bf5750613881565b6000600960008481526020019081526020016000206001015490506000821180156134ea5750600081115b1561387e578082141561383e5760006135a060096000878152602001908152602001600020600301805461351d906158e4565b80601f0160208091040260200160405190810160405280929190818152602001828054613549906158e4565b80156135965780601f1061356b57610100808354040283529160200191613596565b820191906000526020600020905b81548152906001019060200180831161357957829003601f168201915b5050505050612141565b9050600061364b6009600087815260200190815260200160002060030180546135c8906158e4565b80601f01602080910402602001604051908101604052809291908181526020018280546135f4906158e4565b80156136415780601f1061361657610100808354040283529160200191613641565b820191906000526020600020905b81548152906001019060200180831161362457829003601f168201915b5050505050612141565b90508160069080519060200190613663929190613dc8565b50600060405180602001604052806000815250905060005b60108160ff1610156137da5760008260405160200161369a9190614e16565b6040516020818303038152906040525111156136b5576137c7565b828160ff16815181106136f1577f4e487b7100000000000000000000000000000000000000000000000000000000600052603260045260246000fd5b602001015160f81c60f81b7effffffffffffffffffffffffffffffffffffffffffffffffffffffffffffff1916848260ff168151811061375a577f4e487b7100000000000000000000000000000000000000000000000000000000600052603260045260246000fd5b602001015160f81c60f81b7effffffffffffffffffffffffffffffffffffffffffffffffffffffffffffff191611156137c6576040518060400160405280600181526020017f4d0000000000000000000000000000000000000000000000000000000000000081525091505b5b80806137d290615993565b91505061367b565b506040516020016137ea90614f00565b60405160208183030381529060405280519060200120816040516020016138119190614e16565b60405160208183030381529060405280519060200120141561383257613836565b8596505b50505061387d565b8082111561386357600282613853919061568a565b81111561385e578293505b61387c565b600281613870919061568a565b82101561387b578293505b5b5b5b50505b808061388c9061594a565b915050613469565b5060096000828152602001908152602001600020600a60008201548160000155600182015481600101556002820160009054906101000a900473ffffffffffffffffffffffffffffffffffffffff168160020160006101000a81548173ffffffffffffffffffffffffffffffffffffffff021916908373ffffffffffffffffffffffffffffffffffffffff1602179055506003820181600301908054613939906158e4565b613944929190613e4e565b506004820181600401908054613959906158e4565b613964929190613e4e565b506005820181600501908054613979906158e4565b613984929190613e4e565b509050508215613a13573373ffffffffffffffffffffffffffffffffffffffff16600160009054906101000a900473ffffffffffffffffffffffffffffffffffffffff1673ffffffffffffffffffffffffffffffffffffffff1614613a12577f4e487b7100000000000000000000000000000000000000000000000000000000600052600160045260246000fd5b5b7f148ba937a34e2f4db07dd4f996ceba5904b19527ae59ed8b026e1792f8f6a7856001600a604051613a46929190615176565b60405180910390a150505b5050565b60008060279050604077ffffffffffffffff0000000000000000000000000000000060001b846fffffffffffffffffffffffffffffffff191616901c7fffffffffffffffff00000000000000000000000000000000000000000000000060001b846fffffffffffffffffffffffffffffffff19161617915060207bffffffff000000000000000000000000ffffffff000000000000000060001b8316901c7fffffffff000000000000000000000000ffffffff00000000000000000000000060001b831617915060107dffff000000000000ffff000000000000ffff000000000000ffff0000000060001b8316901c7fffff000000000000ffff000000000000ffff000000000000ffff00000000000060001b831617915060087eff000000ff000000ff000000ff000000ff000000ff000000ff000000ff000060001b8316901c7fff000000ff000000ff000000ff000000ff000000ff000000ff000000ff00000060001b831617915060087f0f000f000f000f000f000f000f000f000f000f000f000f000f000f000f000f0060001b8316901c60047ff000f000f000f000f000f000f000f000f000f000f000f000f000f000f000f00060001b8416901c1791508060ff167f0f0f0f0f0f0f0f0f0f0f0f0f0f0f0f0f0f0f0f0f0f0f0f0f0f0f0f0f0f0f0f0f60047f06060606060606060606060606060606060606060606060606060606060606068560001c613c6c91906155fd565b901c16613c7991906156bb565b8260001c7f3030303030303030303030303030303030303030303030303030303030303030613ca891906155fd565b613cb291906155fd565b60001b915050919050565b6000612710600360149054906101000a900460ff1660ff16613cdd6116fc565b613ce791906156bb565b613cf1919061568a565b905090565b6040518060c001604052806000815260200160008152602001600073ffffffffffffffffffffffffffffffffffffffff1681526020016060815260200160608152602001606081525090565b828054613d4e906158e4565b90600052602060002090601f016020900481019282613d705760008555613db7565b82601f10613d8957805160ff1916838001178555613db7565b82800160010185558215613db7579182015b82811115613db6578251825591602001919060010190613d9b565b5b509050613dc49190613edb565b5090565b828054613dd4906158e4565b90600052602060002090601f016020900481019282613df65760008555613e3d565b82601f10613e0f57805160ff1916838001178555613e3d565b82800160010185558215613e3d579182015b82811115613e3c578251825591602001919060010190613e21565b5b509050613e4a9190613edb565b5090565b828054613e5a906158e4565b90600052602060002090601f016020900481019282613e7c5760008555613eca565b82601f10613e8d5780548555613eca565b82800160010185558215613eca57600052602060002091601f016020900482015b82811115613ec9578254825591600101919060010190613eae565b5b509050613ed79190613edb565b5090565b5b80821115613ef4576000816000905550600101613edc565b5090565b6000613f0b613f06846154e7565b6154b6565b905082815260208101848484011115613f2357600080fd5b613f2e848285615878565b509392505050565b600081359050613f4581615b1f565b92915050565b60008083601f840112613f5d57600080fd5b8235905067ffffffffffffffff811115613f7657600080fd5b602083019150836020820283011115613f8e57600080fd5b9250929050565b600081359050613fa481615b36565b92915050565b600081359050613fb981615b4d565b92915050565b600081519050613fce81615b4d565b92915050565b60008083601f840112613fe657600080fd5b8235905067ffffffffffffffff811115613fff57600080fd5b60208301915083600182028301111561401757600080fd5b9250929050565b600082601f83011261402f57600080fd5b813561403f848260208601613ef8565b91505092915050565b60008135905061405781615b64565b92915050565b60008135905061406c81615b7b565b92915050565b60006020828403121561408457600080fd5b600061409284828501613f36565b91505092915050565b600080604083850312156140ae57600080fd5b60006140bc85828601613f36565b92505060206140cd85828601614048565b9150509250929050565b600080602083850312156140ea57600080fd5b600083013567ffffffffffffffff81111561410457600080fd5b61411085828601613f4b565b92509250509250929050565b60006020828403121561412e57600080fd5b600061413c84828501613f95565b91505092915050565b60006020828403121561415757600080fd5b600061416584828501613faa565b91505092915050565b60006020828403121561418057600080fd5b600061418e84828501613fbf565b91505092915050565b600080602083850312156141aa57600080fd5b600083013567ffffffffffffffff8111156141c457600080fd5b6141d085828601613fd4565b92509250509250929050565b6000806000806000606086880312156141f457600080fd5b600086013567ffffffffffffffff81111561420e57600080fd5b61421a88828901613fd4565b9550955050602061422d88828901614048565b935050604086013567ffffffffffffffff81111561424a57600080fd5b61425688828901613fd4565b92509250509295509295909350565b60006020828403121561427757600080fd5b600082013567ffffffffffffffff81111561429157600080fd5b61429d8482850161401e565b91505092915050565b600080600080608085870312156142bc57600080fd5b600085013567ffffffffffffffff8111156142d657600080fd5b6142e28782880161401e565b945050602085013567ffffffffffffffff8111156142ff57600080fd5b61430b8782880161401e565b935050604061431c87828801614048565b925050606085013567ffffffffffffffff81111561433957600080fd5b6143458782880161401e565b91505092959194509250565b60006020828403121561436357600080fd5b600061437184828501614048565b91505092915050565b60006020828403121561438c57600080fd5b600061439a8482850161405d565b91505092915050565b60006143af83836145b5565b905092915050565b60006143c38383614bbd565b905092915050565b6143d4816157f4565b82525050565b6143e3816157f4565b82525050565b6143f2816157e2565b82525050565b60006144038261554c565b61440d8185615592565b93508360208202850161441f85615517565b8060005b8581101561445b578484038952815161443c85826143a3565b945061444783615578565b925060208a01995050600181019050614423565b50829750879550505050505092915050565b600061447882615557565b61448281856155a3565b93508360208202850161449485615527565b8060005b858110156144d057848403895281516144b185826143b7565b94506144bc83615585565b925060208a01995050600181019050614498565b50829750879550505050505092915050565b6144eb81615806565b82525050565b6144fa81615812565b82525050565b61451161450c82615812565b6159bd565b82525050565b600061452282615562565b61452c81856155b4565b935061453c818560208601615887565b61454581615aed565b840191505092915050565b600061455b82615562565b61456581856155c5565b9350614575818560208601615887565b80840191505092915050565b61458a81615866565b82525050565b600061459c83856155f2565b93506145a9838584615878565b82840190509392505050565b60006145c08261556d565b6145ca81856155d0565b93506145da818560208601615887565b6145e381615aed565b840191505092915050565b60006145f98261556d565b61460381856155e1565b9350614613818560208601615887565b61461c81615aed565b840191505092915050565b60006146328261556d565b61463c81856155f2565b935061464c818560208601615887565b80840191505092915050565b60008154614665816158e4565b61466f81866155d0565b9450600182166000811461468a576001811461469c576146cf565b60ff19831686526020860193506146cf565b6146a585615537565b60005b838110156146c7578154818901526001820191506020810190506146a8565b808801955050505b50505092915050565b600081546146e5816158e4565b6146ef81866155f2565b9450600182166000811461470a576001811461471b5761474e565b60ff1983168652818601935061474e565b61472485615537565b60005b8381101561474657815481890152600182019150602081019050614727565b838801955050505b50505092915050565b60006147646019836155e1565b91507f746865206861736820616c7265616479206578697374656421000000000000006000830152602082019050919050565b60006147a46021836155e1565b91507f4f6e6c79206f776e65722063616e2063616c6c20746869732066756e6374696f60008301527f6e000000000000000000000000000000000000000000000000000000000000006020830152604082019050919050565b600061480a600f836155e1565b91507f506c656467696e67206661696c656400000000000000000000000000000000006000830152602082019050919050565b600061484a6002836155f2565b91507f30780000000000000000000000000000000000000000000000000000000000006000830152600282019050919050565b600061488a601d836155e1565b91507f4c6f6744756d6d794269643a203e203e203e203e203e203e203e203e200000006000830152602082019050919050565b60006148ca6013836155e1565b91507f4661696c6564206f6e2064756d6d7920626964000000000000000000000000006000830152602082019050919050565b600061490a6018836155f2565b91507f20696e206f7264657220746f20627579207469636b65742100000000000000006000830152601882019050919050565b600061494a6001836155f2565b91507f3b000000000000000000000000000000000000000000000000000000000000006000830152600182019050919050565b600061498a6025836155e1565b91507f596f752063616e206e6f7420647261772077696e6e657220696e20746869732060008301527f73746167650000000000000000000000000000000000000000000000000000006020830152604082019050919050565b60006149f06006836155e1565b91507f446f6e65212000000000000000000000000000000000000000000000000000006000830152602082019050919050565b6000614a306001836155f2565b91507f4d000000000000000000000000000000000000000000000000000000000000006000830152600182019050919050565b6000614a70603a836155e1565b91507f5468652047616d652069732070617573656420666f72206d61696e74656e656e60008301527f63652e20506c656173652074727920616761696e206c617465720000000000006020830152604082019050919050565b6000614ad66020836155e1565b91507f54686973206665617475726520646f65736e277420737570706f7274207965746000830152602082019050919050565b6000614b166000836155e1565b9150600082019050919050565b6000614b306000836155f2565b9150600082019050919050565b6000614b4a6010836155f2565b91507f596f75722073686f756c642070617920000000000000000000000000000000006000830152601082019050919050565b6000614b8a601d836155e1565b91507f4e6f6e65206f66207469636b657473206172652072657665616c6564210000006000830152602082019050919050565b600060c083016000830151614bd56000860182614da2565b506020830151614be86020860182614da2565b506040830151614bfb60408601826143cb565b5060608301518482036060860152614c1382826145b5565b91505060808301518482036080860152614c2d82826145b5565b91505060a083015184820360a0860152614c4782826145b5565b9150508091505092915050565b600060c083016000830151614c6c6000860182614da2565b506020830151614c7f6020860182614da2565b506040830151614c9260408601826143cb565b5060608301518482036060860152614caa82826145b5565b91505060808301518482036080860152614cc482826145b5565b91505060a083015184820360a0860152614cde82826145b5565b9150508091505092915050565b600060c083016000808401549050614d0281615930565b614d0f6000870182614da2565b5060018401549050614d2081615930565b614d2d6020870182614da2565b5060028401549050614d3e81615916565b614d4b60408701826143cb565b50600384018583036060870152614d628382614658565b925050600484018583036080870152614d7b8382614658565b9250506005840185830360a0870152614d948382614658565b925050819250505092915050565b614dab8161584f565b82525050565b614dba8161584f565b82525050565b614dd1614dcc8261584f565b6159c7565b82525050565b614de081615859565b82525050565b6000614df28284614550565b915081905092915050565b6000614e0a828486614590565b91508190509392505050565b6000614e228284614627565b915081905092915050565b6000614e398288614627565b9150614e448261493d565b9150614e5082876146d8565b9150614e5b8261493d565b9150614e6782866146d8565b9150614e728261493d565b9150614e7f828486614590565b91508190509695505050505050565b6000614e9a82846146d8565b915081905092915050565b6000614eb08261483d565b9150614ebc8285614500565b602082019150614ecc8284614500565b6020820191508190509392505050565b6000614ee78261483d565b9150614ef4828486614590565b91508190509392505050565b6000614f0b82614a23565b9150819050919050565b6000614f2082614b23565b9150819050919050565b6000614f3582614b3d565b9150614f418284614dc0565b602082019150614f50826148fd565b915081905092915050565b6000602082019050614f7060008301846143da565b92915050565b60006020820190508181036000830152614f9081846143f8565b905092915050565b60006020820190508181036000830152614fb2818461446d565b905092915050565b6000602082019050614fcf60008301846144e2565b92915050565b600060c082019050614fea60008301896144e2565b614ff760208301886143e9565b6150046040830187614db1565b818103606083015261501681866145ee565b9050818103608083015261502a81856145ee565b905081810360a083015261503e81846145ee565b9050979650505050505050565b600060c08201905061506060008301886144e2565b61506d60208301876143e9565b61507a6040830186614db1565b818103606083015261508c81856145ee565b9050818103608083015261509f81614757565b905081810360a08301526150b381846145ee565b90509695505050505050565b600060c0820190506150d460008301886144e2565b6150e160208301876143e9565b6150ee6040830186614db1565b818103606083015261510081856145ee565b90508181036080830152615113816147fd565b905081810360a083015261512781846145ee565b90509695505050505050565b600060608201905061514860008301856144e2565b81810360208301526151598161497d565b9050818103604083015261516d8184614ceb565b90509392505050565b600060608201905061518b60008301856144e2565b818103602083015261519c816149e3565b905081810360408301526151b08184614ceb565b90509392505050565b60006060820190506151ce60008301856144e2565b81810360208301526151df81614b09565b905081810360408301526151f38184614ceb565b90509392505050565b600060608201905061521160008301856144e2565b818103602083015261522281614b7d565b905081810360408301526152368184614ceb565b90509392505050565b600060208201905061525460008301846144f1565b92915050565b600060208201905081810360008301526152748184614517565b905092915050565b60006020820190506152916000830184614581565b92915050565b600060a0820190506152ac6000830188614581565b6152b96020830187614db1565b6152c66040830186614db1565b6152d36060830185614db1565b6152e06080830184614db1565b9695505050505050565b6000602082019050818103600083015261530481846145ee565b905092915050565b6000602082019050818103600083015261532581614797565b9050919050565b600060408201905081810360008301526153458161487d565b90506153546020830184614db1565b92915050565b60006020820190508181036000830152615373816148bd565b9050919050565b6000602082019050818103600083015261539381614a63565b9050919050565b600060208201905081810360008301526153b381614ac9565b9050919050565b600060208201905081810360008301526153d48184614c54565b905092915050565b60006020820190506153f16000830184614db1565b92915050565b600060408201905061540c6000830185614db1565b6154196020830184614db1565b9392505050565b60006020820190506154356000830184614dd7565b92915050565b6000808335600160200384360303811261545457600080fd5b80840192508235915067ffffffffffffffff82111561547257600080fd5b60208301925060018202360383131561548a57600080fd5b509250929050565b60008235600160c0038336030381126154aa57600080fd5b80830191505092915050565b6000604051905081810181811067ffffffffffffffff821117156154dd576154dc615abe565b5b8060405250919050565b600067ffffffffffffffff82111561550257615501615abe565b5b601f19601f8301169050602081019050919050565b6000819050602082019050919050565b6000819050602082019050919050565b60008190508160005260206000209050919050565b600081519050919050565b600081519050919050565b600081519050919050565b600081519050919050565b6000602082019050919050565b6000602082019050919050565b600082825260208201905092915050565b600082825260208201905092915050565b600082825260208201905092915050565b600081905092915050565b600082825260208201905092915050565b600082825260208201905092915050565b600081905092915050565b60006156088261584f565b91506156138361584f565b9250827fffffffffffffffffffffffffffffffffffffffffffffffffffffffffffffffff0382111561564857615647615a02565b5b828201905092915050565b600061565e82615859565b915061566983615859565b92508260ff0382111561567f5761567e615a02565b5b828201905092915050565b60006156958261584f565b91506156a08361584f565b9250826156b0576156af615a31565b5b828204905092915050565b60006156c68261584f565b91506156d18361584f565b9250817fffffffffffffffffffffffffffffffffffffffffffffffffffffffffffffffff048311821515161561570a57615709615a02565b5b828202905092915050565b600061572082615859565b915061572b83615859565b92508160ff048311821515161561574557615744615a02565b5b828202905092915050565b600061575b8261584f565b91506157668361584f565b92508282101561577957615778615a02565b5b828203905092915050565b600061578f82615859565b915061579a83615859565b9250828210156157ad576157ac615a02565b5b828203905092915050565b600073ffffffffffffffffffffffffffffffffffffffff82169050919050565b6000819050919050565b60006157ed8261582f565b9050919050565b60006157ff8261582f565b9050919050565b60008115159050919050565b6000819050919050565b600081905061582a82615b0b565b919050565b600073ffffffffffffffffffffffffffffffffffffffff82169050919050565b6000819050919050565b600060ff82169050919050565b60006158718261581c565b9050919050565b82818337600083830152505050565b60005b838110156158a557808201518184015260208101905061588a565b838111156158b4576000848401525b50505050565b60006158c58261584f565b915060008214156158d9576158d8615a02565b5b600182039050919050565b600060028204905060018216806158fc57607f821691505b602082108114156159105761590f615a8f565b5b50919050565b600061592961592483615afe565b6157b8565b9050919050565b600061594361593e83615afe565b6157d8565b9050919050565b60006159558261584f565b91507fffffffffffffffffffffffffffffffffffffffffffffffffffffffffffffffff82141561598857615987615a02565b5b600182019050919050565b600061599e82615859565b915060ff8214156159b2576159b1615a02565b5b600182019050919050565b6000819050919050565b6000819050919050565b60006159dc8261584f565b91506159e78361584f565b9250826159f7576159f6615a31565b5b828206905092915050565b7f4e487b7100000000000000000000000000000000000000000000000000000000600052601160045260246000fd5b7f4e487b7100000000000000000000000000000000000000000000000000000000600052601260045260246000fd5b7f4e487b7100000000000000000000000000000000000000000000000000000000600052602160045260246000fd5b7f4e487b7100000000000000000000000000000000000000000000000000000000600052602260045260246000fd5b7f4e487b7100000000000000000000000000000000000000000000000000000000600052604160045260246000fd5b6000601f19601f8301169050919050565b60008160001c9050919050565b60048110615b1c57615b1b615a60565b5b50565b615b28816157f4565b8114615b3357600080fd5b50565b615b3f81615806565b8114615b4a57600080fd5b50565b615b5681615812565b8114615b6157600080fd5b50565b615b6d8161584f565b8114615b7857600080fd5b50565b615b8481615859565b8114615b8f57600080fd5b5056fea2646970667358221220525d4ffb959e7dd60c619995ef459a1f08f03b85dc58c0065ae981687b28c40b64736f6c634300080000335468652053696d706c65737420616e6420636c6561726573742056657269666961626c65204c6f7474657279",
  "linkReferences": {},
  "deployedLinkReferences": {}
}